{
  "_format": "hh-sol-artifact-1",
  "contractName": "Board",
  "sourceName": "contracts/Board.sol",
  "abi": [
    {
      "anonymous": false,
      "inputs": [
        {
          "indexed": false,
          "internalType": "uint256",
          "name": "id",
          "type": "uint256"
        },
        {
          "indexed": false,
          "internalType": "address",
          "name": "sender",
          "type": "address"
        },
        {
          "indexed": false,
          "internalType": "string",
          "name": "message",
          "type": "string"
        },
        {
          "indexed": false,
          "internalType": "uint256",
          "name": "block",
          "type": "uint256"
        }
      ],
      "name": "NewMessage",
      "type": "event"
    },
    {
      "inputs": [],
      "name": "id",
      "outputs": [
        {
          "internalType": "uint256",
          "name": "",
          "type": "uint256"
        }
      ],
      "stateMutability": "view",
      "type": "function"
    },
    {
      "inputs": [
        {
          "internalType": "string",
          "name": "message",
          "type": "string"
        }
      ],
      "name": "sendMessage",
      "outputs": [],
      "stateMutability": "nonpayable",
      "type": "function"
    }
  ],
  "bytecode": "0x608060405234801561001057600080fd5b506101de806100206000396000f3fe608060405234801561001057600080fd5b50600436106100365760003560e01c8063469c81101461003b578063af640d0f14610050575b600080fd5b61004e6100493660046100c4565b61006b565b005b61005960005481565b60405190815260200160405180910390f35b60008054908061007a83610181565b91905055507ff32ae3be4b02114f1cbf71d0959660cc172ecfa03c9c1d9ad2ac403f63b29fab600054338484436040516100b8959493929190610131565b60405180910390a15050565b600080602083850312156100d6578182fd5b823567ffffffffffffffff808211156100ed578384fd5b818501915085601f830112610100578384fd5b81358181111561010e578485fd5b86602082850101111561011f578485fd5b60209290920196919550909350505050565b8581526001600160a01b03851660208201526080604082018190528101839052828460a083013760008060a0858401015260a0601f19601f86011683010190508260608301529695505050505050565b60006000198214156101a157634e487b7160e01b81526011600452602481fd5b506001019056fea2646970667358221220643cee59b1d059842bf2da01a16f53e94e1f34de609346c40688cc79ed7eab5964736f6c63430008040033",
  "linkReferences": {},
  "deployedLinkReferences": {}
}